:1000000000308A00E3280000FF00030E8301A500F2
:100010007F08A4000A08AF008A01A40E0408A60005
:100020002008A7002108A8002208A9002308AA0088
:1000300003170D080313AB0003170F080313AC00DD
:1000400003170C080313AD0003170E080313AE00CB
:10005000831383128C308400801E30288C1A512820
:10006000260884002708A0002808A1002908A2006B
:100070002A08A3002B0803178D0003132C0803176D
:100080008F0003132D0803178C0003132E0803178A
:100090008E0003132F088A00250E8300FF0E7F0EAB
:1000A00009008A115E288C1E53281808B7001A0808
:1000B000A100B71C5D28181218160800532021084B
:1000C000BF003F08233C031D692853202108B900C5
:1000D00038148C128A1130280D05D232E332693B74
:1000E00065323A10A5310D0500003A3084008313C3
:1000F0000008031988280230A100A001A00B7E2867
:10010000A10B7D289730A000A00B8428800B7B28B2
:1001100008000B08BB008B13831603178C170C14F5
:100120000000000083120313BB1B8B170318C128A8
:1001300003170C087F390313BB0003170D080313C3
:10014000BC0003170F080313BD003B080C1EA628B4
:1001500099003C0803178D0003133D0803178F0017
:1001600003130B08BE008B13831603178C170C1494
:100170000000000083120313BE1B8B17BA0BC128AB
:10018000E12803170C0D0E0D7F390313BB00031775
:100190000D080313BC0003170F080313BD003B0831
:1001A0000C1ED02899003C0803178D0003133D084E
:1001B00003178F008D0A03198F0A03100313BA0B5C
:1001C00089288A11622A03081F3983007130831637
:1001D0008F000F088312B70183169B110C30990012
:1001E000A2309800903083129800381003171F1027
:1001F0009F101F119F1103131F13003003179E0040
:1002000099019A0183169E0183129B0103138D129B
:100210008313B101B201003083168500E8308700F6
:10022000203086008C16C03083128B048C1E1A2955
:100230005320162983160510831205108316851086
:1002400083128510831607168312071A6E2923302E
:100250000C1E2829990041300C1E2C299900C83009
:10026000BA00752023300C1E3329990041300C1E32
:1002700037299900C830BA00752023300C1E3E295A
:10028000990041300C1E42299900C830BA007520EF
:10029000831607168312071E482923300C1E4E2989
:1002A000990061300C1E52299900C830BA0075209F
:1002B00023300C1E5929990061300C1E5D299900CC
:1002C000C830BA00752023300C1E642999006130B3
:1002D0000C1E68299900C830BA007520831687154E
:1002E00083128719BA2923300C1E742999004230D1
:1002F0000C1E78299900C830BA00752023300C1ED6
:100300007F29990042300C1E83299900C830BA0019
:10031000752023300C1E8A29990042300C1E8E292C
:100320009900C830BA007520831687158312871D7F
:10033000942923300C1E9A29990062300C1E9E29A4
:100340009900C830BA00752023300C1EA5299900E9
:1003500062300C1EA9299900C830BA0075202330DC
:100360000C1EB029990062300C1EB4299900C830C7
:10037000BA007520831607178312071B062A23303D
:100380000C1EC029990043300C1EC4299900C830A6
:10039000BA00752023300C1ECB29990043300C1E67
:1003A000CF299900C830BA00752023300C1ED629F9
:1003B000990043300C1EDA299900C830BA00752024
:1003C000831607178312071FE02923300C1EE62926
:1003D000990063300C1EEA299900C830BA007520D4
:1003E00023300C1EF129990063300C1EF529990069
:1003F000C830BA00752023300C1EFC2999006330E8
:100400000C1E002A9900C830BA0075208316871781
:100410008312871B522A23300C1E0C2A9900443069
:100420000C1E102A9900C830BA00752023300C1E0B
:10043000172A990044300C1E1B2A9900C830BA00B4
:10044000752023300C1E222A990044300C1E262AC7
:100450009900C830BA007520831687178312871F4A
:100460002C2A23300C1E322A990064300C1E362AA6
:100470009900C830BA00752023300C1E3D2A99001F
:1004800064300C1E412A9900C830BA007520233010
:100490000C1E482A990064300C1E4C2A9900C83062
:1004A000BA0075203230BA007520381CA12A3810E5
:1004B0006C3003178D0000308F0003100C300313D5
:1004C000BA00892839080C1E632A99000D300C1EC9
:1004D000672A99000A300C1E6B2A99003908473C9C
:1004E000031D7A2A831605108312051483168510BE
:1004F000831285103908673C031D862A8316051070
:100500008312051083168510831285103908483C24
:10051000031D922A831685108312851483160510F5
:10052000831205103908683C031D9E2A8316851026
:100530008312851083160510831205101430BA003B
:0605400075202229630072
:02400E00853CEF
:00000001FF
;PIC16F690
;CRC=A4FB  CREATED="27-Feb-26 12:54"
