:1000000001308A0046290000FF00030E8301A5008D
:100010007F08A4000A08AF008A01A40E0408A60005
:100020002008A7002108A8002208A9002308AA0088
:1000300003170D080313AB0003170F080313AC00DD
:1000400003170C080313AD0003170E080313AE00CB
:10005000831383128C308400801E30288C1A512820
:10006000260884002708A0002808A1002908A2006B
:100070002A08A3002B0803178D0003132C0803176D
:100080008F0003132D0803178C0003132E0803178A
:100090008E0003132F088A00250E8300FF0E7F0EAB
:1000A00009008A115E288C1E53281808B7001A0808
:1000B000A100B71C5D28181218160800532021084B
:1000C000BF003F08233C031D692853202108B900C5
:1000D00038148C128A1130280D05522C2028C92181
:1000E0002029E530E43C2E17AE060A000D05D23279
:1000F000E332693B65323A10A5310D0500000B086B
:10010000BA008B13831603178C170C140000000021
:1001100083120313BA1B8B1703170C087F390319BB
:10012000D5280313BA0003170D080313BB000317E8
:100130000F080313BC003A080C1E9C2899003B08CA
:1001400003178D0003133C0803178F0003130B08DC
:10015000BD008B13831603178C170C1400000000CE
:1001600083120313BD1B8B1703170C0D0E0D7F3964
:100170000319D5280313BA0003170D080313BB0096
:1001800003170F080313BC003A080C1EC52899007A
:100190003B0803178D0003133C0803178F008D0ADB
:1001A00003198F0A03137F28031703138A11A52944
:1001B0003A308400831300080319EB280230A100B1
:1001C000A001A00BE128A10BE0289730A000A00B14
:1001D000E728800BDE2808000B08BB008B13831672
:1001E00003178C170C140000000083120313BB1BB1
:1001F0008B170318242903170C087F390313BB003E
:1002000003170D080313BC0003170F080313BD00E9
:100210003B080C1E092999003C0803178D000313A5
:100220003D0803178F0003130B08BE008B138316C2
:1002300003178C170C140000000083120313BE1B5D
:100240008B17BA0B2429442903170C0D0E0D7F3987
:100250000313BB0003170D080313BC0003170F089B
:100260000313BD003B080C1E332999003C080317FB
:100270008D0003133D0803178F008D0A03198F0AA1
:1002800003100313BA0BEC288A114A2A03081F39FA
:100290008300713083168F000F088312B701831615
:1002A0009B110C309900A230980090308312980076
:1002B000381003171F109F101F119F1103131F13D6
:1002C000003003179E0099019A0183169E01831244
:1002D0009B0103138D128313B101B20183168501B3
:1002E0008312850183168701F03083128700003066
:1002F00083168500F0308700203086008C16C030D1
:1003000083128B048C1E86295320822983160511A3
:1003100083120511831607108312071083168710A6
:100320008312871083160711831207118316051095
:100330008312051083168510831285106C30031705
:100340008D0000308F0003137F2883160717831258
:10035000071BF12923300C1EAB29990047300C1ED6
:10036000AF299900C830BA00D82023300C1EB62916
:10037000990047300C1EBA299900C830BA00D8201D
:1003800023300C1EC129990047300C1EC529990045
:10039000C830BA00D820831607178312071FCB294D
:1003A00023300C1ED129990067300C1ED5299900E5
:1003B000C830BA00D82023300C1EDC2999006730E1
:1003C0000C1EE0299900C830BA00D82023300C1E3A
:1003D000E729990067300C1EEB299900C830BA0054
:1003E000D820831687178312871B3D2A23300C1EC3
:1003F000F729990048300C1EFB299900C830BA0033
:10040000D82023300C1E022A990048300C1E062AE0
:100410009900C830BA00D82023300C1E0D2A99004C
:1004200048300C1E112A9900C830BA00D820831613
:1004300087178312871F172A23300C1E1D2A990045
:1004400068300C1E212A9900C830BA00D820233009
:100450000C1E282A990068300C1E2C2A9900C830DE
:10046000BA00D82023300C1E332A990068300C1EA5
:10047000372A9900C830BA00D820381C992A381079
:10048000763003178D0000308F0003100C300313FB
:10049000BA00EC2839080C1E4B2A99000D300C1EAE
:1004A0004F2A99000A300C1E532A99003908413C02
:1004B000031D5E2A83160511831205153908613C58
:1004C000031D662A83160511831205113908423C63
:1004D000031D6E2A83160710831207143908623C25
:1004E000031D762A83160710831207103908433C30
:1004F000031D7E2A83168710831287143908633CF4
:10050000031D862A83168710831287103908443CFE
:10051000031D8E2A83160711831207153908643CC0
:10052000031D962A83160711831207116430BA003F
:06053000D820A52963009C
:02400E00853CEF
:00000001FF
;PIC16F690
;CRC=9501  CREATED="27-Feb-26 12:54"
